{
  "contractName": "Package",
  "abi": [
    {
      "inputs": [
        {
          "name": "PkgCreator",
          "type": "address"
        },
        {
          "name": "Seller",
          "type": "address"
        },
        {
          "name": "Carrier",
          "type": "address"
        },
        {
          "name": "Buyer",
          "type": "address"
        },
        {
          "name": "DisputeResolver",
          "type": "address"
        },
        {
          "name": "MerchValue",
          "type": "uint256"
        },
        {
          "name": "ShippingFee",
          "type": "uint256"
        },
        {
          "name": "ArrivalTO",
          "type": "uint256"
        },
        {
          "name": "WaitingForStakesInTO",
          "type": "uint256"
        }
      ],
      "payable": true,
      "stateMutability": "payable",
      "type": "constructor"
    },
    {
      "payable": true,
      "stateMutability": "payable",
      "type": "fallback"
    },
    {
      "constant": false,
      "inputs": [
        {
          "name": "location",
          "type": "string"
        }
      ],
      "name": "signPackage",
      "outputs": [],
      "payable": false,
      "stateMutability": "nonpayable",
      "type": "function"
    },
    {
      "constant": false,
      "inputs": [
        {
          "name": "reason",
          "type": "string"
        }
      ],
      "name": "returnPackage",
      "outputs": [],
      "payable": false,
      "stateMutability": "nonpayable",
      "type": "function"
    },
    {
      "constant": false,
      "inputs": [],
      "name": "openDispute",
      "outputs": [],
      "payable": false,
      "stateMutability": "nonpayable",
      "type": "function"
    },
    {
      "constant": false,
      "inputs": [
        {
          "name": "sellersCut",
          "type": "uint256"
        }
      ],
      "name": "resolveDispute",
      "outputs": [],
      "payable": false,
      "stateMutability": "nonpayable",
      "type": "function"
    }
  ],
  "bytecode": "0x608060405260405161012080620018a183398101806040528101908080519060200190929190805190602001909291908051906020019092919080519060200190929190805190602001909291908051906020019092919080519060200190929190805190602001909291908051906020019092919050505087600060016101000a81548173ffffffffffffffffffffffffffffffffffffffff021916908373ffffffffffffffffffffffffffffffffffffffff16021790555085600260006101000a81548173ffffffffffffffffffffffffffffffffffffffff021916908373ffffffffffffffffffffffffffffffffffffffff16021790555086600160006101000a81548173ffffffffffffffffffffffffffffffffffffffff021916908373ffffffffffffffffffffffffffffffffffffffff16021790555033600460006101000a81548173ffffffffffffffffffffffffffffffffffffffff021916908373ffffffffffffffffffffffffffffffffffffffff16021790555084600360006101000a81548173ffffffffffffffffffffffffffffffffffffffff021916908373ffffffffffffffffffffffffffffffffffffffff16021790555083600581905550826006819055506000600781905550600060088190555060006009819055506000600e8190555060008060006101000a81548160ff021916908360038111156200020a57fe5b021790555042600a8190555081600b8190555080600c8190555060646040519080825280602002602001820160405280156200025b57816020015b6060815260200190600190039081620002455790505b50600d908051906020019062000273929190620003c9565b506200028e896200029d640100000000026401000000009004565b5050505050505050506200055c565b600260009054906101000a900473ffffffffffffffffffffffffffffffffffffffff1673ffffffffffffffffffffffffffffffffffffffff168173ffffffffffffffffffffffffffffffffffffffff161415620003015734600781905550620003c6565b600060019054906101000a900473ffffffffffffffffffffffffffffffffffffffff1673ffffffffffffffffffffffffffffffffffffffff168173ffffffffffffffffffffffffffffffffffffffff161415620003655734600981905550620003c5565b600160009054906101000a900473ffffffffffffffffffffffffffffffffffffffff1673ffffffffffffffffffffffffffffffffffffffff168173ffffffffffffffffffffffffffffffffffffffff161415620003c457346008819055505b5b5b50565b8280548282559060005260206000209081019282156200041d579160200282015b828111156200041c5782518290805190602001906200040b92919062000430565b5091602001919060010190620003ea565b5b5090506200042c9190620004b7565b5090565b828054600181600116156101000203166002900490600052602060002090601f016020900481019282601f106200047357805160ff1916838001178555620004a4565b82800160010185558215620004a4579182015b82811115620004a357825182559160200191906001019062000486565b5b509050620004b39190620004e8565b5090565b620004e591905b80821115620004e15760008181620004d7919062000510565b50600101620004be565b5090565b90565b6200050d91905b8082111562000509576000816000905550600101620004ef565b5090565b90565b50805460018160011615610100020316600290046000825580601f1062000538575062000559565b601f016020900490600052602060002090810190620005589190620004e8565b5b50565b611335806200056c6000396000f300608060405260043610610062576000357c0100000000000000000000000000000000000000000000000000000000900463ffffffff168063260519b9146101c35780634fd6137c1461022c578063c2b7b86814610243578063d0498dd314610270575b6000600381111561006f57fe5b6000809054906101000a900460ff16600381111561008957fe5b14801561009c5750600c54600a54014210155b156100ae576100a96102d9565b610147565b600160038111156100bb57fe5b6000809054906101000a900460ff1660038111156100d557fe5b1480156100e85750600b54600a54014210155b156100fa576100f56104ad565b610146565b6002600381111561010757fe5b6000809054906101000a900460ff16600381111561012157fe5b1480156101375750600b54600202600a54014210155b15610145576101446105f6565b5b5b5b610150336106d4565b600654600554016007541015801561016f575060065460020260095410155b801561018357506006546005540160085410155b80156101b357506000600381111561019757fe5b6000809054906101000a900460ff1660038111156101b157fe5b145b156101c1576101c06107fb565b5b005b3480156101cf57600080fd5b5061022a600480360381019080803590602001908201803590602001908080601f0160208091040260200160405190810160405280939291908181526020018383808284378201915050505050509192919290505050610846565b005b34801561023857600080fd5b50610241610a1e565b005b34801561024f57600080fd5b5061026e60048036038101908080359060200190929190505050610ab9565b005b34801561027c57600080fd5b506102d7600480360381019080803590602001908201803590602001908080601f0160208091040260200160405190810160405280939291908181526020018383808284378201915050505050509192919290505050610c87565b005b60008060038111156102e757fe5b6000809054906101000a900460ff16600381111561030157fe5b14151561030d57600080fd5b6000600854111561038457600160009054906101000a900473ffffffffffffffffffffffffffffffffffffffff1673ffffffffffffffffffffffffffffffffffffffff166108fc6008549081150290604051600060405180830381858888f19350505050158015610382573d6000803e3d6000fd5b505b600060075411156103fb57600260009054906101000a900473ffffffffffffffffffffffffffffffffffffffff1673ffffffffffffffffffffffffffffffffffffffff166108fc6007549081150290604051600060405180830381858888f193505050501580156103f9573d6000803e3d6000fd5b505b6000600954111561047257600260009054906101000a900473ffffffffffffffffffffffffffffffffffffffff1673ffffffffffffffffffffffffffffffffffffffff166108fc6009549081150290604051600060405180830381858888f19350505050158015610470573d6000803e3d6000fd5b505b600460009054906101000a900473ffffffffffffffffffffffffffffffffffffffff1673ffffffffffffffffffffffffffffffffffffffff16ff5b60018060038111156104bb57fe5b6000809054906101000a900460ff1660038111156104d557fe5b1415156104e157600080fd5b600260009054906101000a900473ffffffffffffffffffffffffffffffffffffffff1673ffffffffffffffffffffffffffffffffffffffff166108fc6007549081150290604051600060405180830381858888f1935050505015801561054b573d6000803e3d6000fd5b50600060019054906101000a900473ffffffffffffffffffffffffffffffffffffffff1673ffffffffffffffffffffffffffffffffffffffff166108fc600954600854019081150290604051600060405180830381858888f193505050501580156105ba573d6000803e3d6000fd5b50600460009054906101000a900473ffffffffffffffffffffffffffffffffffffffff1673ffffffffffffffffffffffffffffffffffffffff16ff5b600280600381111561060457fe5b6000809054906101000a900460ff16600381111561061e57fe5b14151561062a57600080fd5b600060019054906101000a900473ffffffffffffffffffffffffffffffffffffffff1673ffffffffffffffffffffffffffffffffffffffff166108fc600954600854019081150290604051600060405180830381858888f19350505050158015610698573d6000803e3d6000fd5b50600460009054906101000a900473ffffffffffffffffffffffffffffffffffffffff1673ffffffffffffffffffffffffffffffffffffffff16ff5b600260009054906101000a900473ffffffffffffffffffffffffffffffffffffffff1673ffffffffffffffffffffffffffffffffffffffff168173ffffffffffffffffffffffffffffffffffffffff16141561073657346007819055506107f8565b600060019054906101000a900473ffffffffffffffffffffffffffffffffffffffff1673ffffffffffffffffffffffffffffffffffffffff168173ffffffffffffffffffffffffffffffffffffffff16141561079857346009819055506107f7565b600160009054906101000a900473ffffffffffffffffffffffffffffffffffffffff1673ffffffffffffffffffffffffffffffffffffffff168173ffffffffffffffffffffffffffffffffffffffff1614156107f657346008819055505b5b5b50565b60016000809054906101000a900460ff16600381111561081757fe5b01600381111561082357fe5b6000806101000a81548160ff0219169083600381111561083f57fe5b0217905550565b600180600381111561085457fe5b6000809054906101000a900460ff16600381111561086e57fe5b14151561087a57600080fd5b600260009054906101000a900473ffffffffffffffffffffffffffffffffffffffff1673ffffffffffffffffffffffffffffffffffffffff163373ffffffffffffffffffffffffffffffffffffffff161415156108d657600080fd5b81600d600e548154811015156108e857fe5b906000526020600020019080519060200190610905929190611264565b50600e600081548092919060010191905055506109206107fb565b600260009054906101000a900473ffffffffffffffffffffffffffffffffffffffff1673ffffffffffffffffffffffffffffffffffffffff166108fc6005549081150290604051600060405180830381858888f1935050505015801561098a573d6000803e3d6000fd5b50600554600760008282540392505081905550600160009054906101000a900473ffffffffffffffffffffffffffffffffffffffff1673ffffffffffffffffffffffffffffffffffffffff166108fc6006549081150290604051600060405180830381858888f19350505050158015610a07573d6000803e3d6000fd5b506006546008600082825403925050819055505050565b6002806003811115610a2c57fe5b6000809054906101000a900460ff166003811115610a4657fe5b141515610a5257600080fd5b600160009054906101000a900473ffffffffffffffffffffffffffffffffffffffff1673ffffffffffffffffffffffffffffffffffffffff163373ffffffffffffffffffffffffffffffffffffffff16141515610aae57600080fd5b610ab66107fb565b50565b6003806003811115610ac757fe5b6000809054906101000a900460ff166003811115610ae157fe5b141515610aed57600080fd5b600360009054906101000a900473ffffffffffffffffffffffffffffffffffffffff1673ffffffffffffffffffffffffffffffffffffffff163373ffffffffffffffffffffffffffffffffffffffff16141515610b4957600080fd5b600260009054906101000a900473ffffffffffffffffffffffffffffffffffffffff1673ffffffffffffffffffffffffffffffffffffffff166108fc6064846006546002026005540102811515610b9c57fe5b049081150290604051600060405180830381858888f19350505050158015610bc8573d6000803e3d6000fd5b50600260009054906101000a900473ffffffffffffffffffffffffffffffffffffffff1673ffffffffffffffffffffffffffffffffffffffff166108fc6064846001036006546002026005540102811515610c1f57fe5b049081150290604051600060405180830381858888f19350505050158015610c4b573d6000803e3d6000fd5b50600460009054906101000a900473ffffffffffffffffffffffffffffffffffffffff1673ffffffffffffffffffffffffffffffffffffffff16ff5b60006003811115610c9457fe5b6000809054906101000a900460ff166003811115610cae57fe5b148015610cc15750600c54600a54014210155b15610cd357610cce6102d9565b610d6c565b60016003811115610ce057fe5b6000809054906101000a900460ff166003811115610cfa57fe5b148015610d0d5750600b54600a54014210155b15610d1f57610d1a6104ad565b610d6b565b60026003811115610d2c57fe5b6000809054906101000a900460ff166003811115610d4657fe5b148015610d5c5750600b54600202600a54014210155b15610d6a57610d696105f6565b5b5b5b60016003811115610d7957fe5b6000809054906101000a900460ff166003811115610d9357fe5b148015610e455750600160009054906101000a900473ffffffffffffffffffffffffffffffffffffffff1673ffffffffffffffffffffffffffffffffffffffff163373ffffffffffffffffffffffffffffffffffffffff161480610e445750600260009054906101000a900473ffffffffffffffffffffffffffffffffffffffff1673ffffffffffffffffffffffffffffffffffffffff163373ffffffffffffffffffffffffffffffffffffffff16145b5b80610f25575060026003811115610e5857fe5b6000809054906101000a900460ff166003811115610e7257fe5b148015610f245750600160009054906101000a900473ffffffffffffffffffffffffffffffffffffffff1673ffffffffffffffffffffffffffffffffffffffff163373ffffffffffffffffffffffffffffffffffffffff161480610f235750600060019054906101000a900473ffffffffffffffffffffffffffffffffffffffff1673ffffffffffffffffffffffffffffffffffffffff163373ffffffffffffffffffffffffffffffffffffffff16145b5b5b1515610f3057600080fd5b600260009054906101000a900473ffffffffffffffffffffffffffffffffffffffff1673ffffffffffffffffffffffffffffffffffffffff163373ffffffffffffffffffffffffffffffffffffffff161415610f8f57610f8e611033565b5b600060019054906101000a900473ffffffffffffffffffffffffffffffffffffffff1673ffffffffffffffffffffffffffffffffffffffff163373ffffffffffffffffffffffffffffffffffffffff161415610fee57610fed611183565b5b80600d600e5481548110151561100057fe5b90600052602060002001908051906020019061101d929190611264565b50600e6000815480929190600101919050555050565b600180600381111561104157fe5b6000809054906101000a900460ff16600381111561105b57fe5b14151561106757600080fd5b600060019054906101000a900473ffffffffffffffffffffffffffffffffffffffff1673ffffffffffffffffffffffffffffffffffffffff166108fc600654600554019081150290604051600060405180830381858888f193505050501580156110d5573d6000803e3d6000fd5b50600160009054906101000a900473ffffffffffffffffffffffffffffffffffffffff1673ffffffffffffffffffffffffffffffffffffffff166108fc600654600202600554019081150290604051600060405180830381858888f19350505050158015611147573d6000803e3d6000fd5b50600460009054906101000a900473ffffffffffffffffffffffffffffffffffffffff1673ffffffffffffffffffffffffffffffffffffffff16ff5b600280600381111561119157fe5b6000809054906101000a900460ff1660038111156111ab57fe5b1415156111b757600080fd5b600160009054906101000a900473ffffffffffffffffffffffffffffffffffffffff1673ffffffffffffffffffffffffffffffffffffffff166108fc600654600302600554019081150290604051600060405180830381858888f19350505050158015611228573d6000803e3d6000fd5b50600460009054906101000a900473ffffffffffffffffffffffffffffffffffffffff1673ffffffffffffffffffffffffffffffffffffffff16ff5b828054600181600116156101000203166002900490600052602060002090601f016020900481019282601f106112a557805160ff19168380011785556112d3565b828001600101855582156112d3579182015b828111156112d25782518255916020019190600101906112b7565b5b5090506112e091906112e4565b5090565b61130691905b808211156113025760008160009055506001016112ea565b5090565b905600a165627a7a72305820c3b7c9f59b819a0289568da13855a7b45b6b51ce71554d2b30102e4a5fc910fd0029",
  "source": "pragma solidity ^0.4.21;\n\n\ncontract Package {\n  enum State {WaitingForStakesIn, Shipped, Returned, UnderDispute}\n  State  state;\n\taddress seller;\n\taddress carrier;\n\taddress buyer;\n\taddress disputeResolver;\n    address packageManger;\n\tuint merchValue; //todo resolve type if int256 is too big or can do float\n\tuint shippingFee;\n\tuint ammountBuyer;\n\tuint ammountCarrier;\n\tuint ammountSeller;\n\tuint creationTime;\n\tuint arrivalTO;\n\tuint waitingForStakesInTO ;\n\tstring[] trajectory;\n\tuint numOfSig; //number of stations allong pakage route\n\n\t// Contract constructor: set owner\n\t constructor(address PkgCreator,address Seller,address Carrier,address Buyer,address DisputeResolver,uint MerchValue,uint ShippingFee, uint ArrivalTO, uint WaitingForStakesInTO) public payable\n\t{\n\t    seller = Seller;\n\t    buyer = Buyer;\n\t    carrier = Carrier;\n      packageManger = msg.sender;\n\t    disputeResolver = DisputeResolver;\n\t    merchValue = MerchValue;\n\t    shippingFee = ShippingFee;\n\t    ammountBuyer = 0;\n\t    ammountCarrier = 0;\n\t    ammountSeller = 0;\n\t    numOfSig = 0;\n\t    state = State.WaitingForStakesIn;\n\t    creationTime = now;\n\t    arrivalTO = ArrivalTO;\n\t    waitingForStakesInTO = WaitingForStakesInTO;\n\t    trajectory = new string[](100); // check how to keep trajectory\n\n\n\t    //check if creator paid and update\n      resolvePayment(PkgCreator);\n\n\n\t}\n  function resolvePayment(address payer) private\n  {\n    if (payer == buyer)\n    {\n        ammountBuyer=msg.value;\n    }\n    else if (payer == seller)\n    {\n        ammountSeller=msg.value;\n    }\n    else if (payer == carrier)\n    {\n        ammountCarrier=msg.value;\n    }\n\n  }\n    modifier atState(State _state) {\n        require(state == _state);\n        _;\n    }\n\n    // Perform timed transitions. Be sure to mention\n    // this modifier first, otherwise the guards\n    // will not take the new stage into account.\n    modifier timedTransitions() {\n        if (state == State.WaitingForStakesIn && now >= creationTime + waitingForStakesInTO)\n        {\n          terminateNotShipped();\n        }\n        else if (state == State.Shipped &&  now >= creationTime + arrivalTO)\n          {\n          terminateLost();\n          }\n        else if (state == State.Returned &&  now >= creationTime + 2*arrivalTO)\n          {\n              terminateOnReturn();\n          }\n        _;\n    }\n\n    function changeState() private\n    {\n        state = State(uint(state) + 1);\n    }\n\t//pay to contract, check who paid, update amount paid then change state\n\tfunction () public payable timedTransitions() {\n\t    resolvePayment(msg.sender);\n\t    //check if everybody paid, package ready for shipping\n\t    if (ammountBuyer >= merchValue+shippingFee && ammountSeller >= 2*shippingFee && ammountCarrier >= merchValue+shippingFee && state == State.WaitingForStakesIn)\n\t        changeState();\n\t}\n\n\tfunction signPackage(string location) public timedTransitions() { //TODO MAKE CONDITIONS MORE READABLE\n\t    require(state == State.Shipped && (msg.sender == carrier || msg.sender==buyer) || state == State.Returned && (msg.sender == carrier || msg.sender==seller));\n\t    if (msg.sender == buyer)\n\t        terminateNormal();\n\t    if (msg.sender == seller)\n\t        terminateReturned();\n\t   // if signer is carrier just update trajectory\n\t    trajectory[numOfSig] = location;\n\t    numOfSig++;\n\t}\n\n\tfunction returnPackage(string reason) public atState(State.Shipped){\n\t    require(msg.sender == buyer);\n\t    trajectory[numOfSig]  = reason; //todo: manage history of trajectory in array of strings\n\t    numOfSig++;\n\t    changeState();\n\t    buyer.transfer(merchValue);\n\t    ammountBuyer-=merchValue;\n\t    carrier.transfer(shippingFee);\n\t    ammountCarrier-=shippingFee;\n\t}\n\n  function openDispute() public atState(State.Returned) {\n    require(msg.sender == carrier);\n    changeState();\n    //todo: think of what message we actualy send  to disputeResolver\n\n  }\n function resolveDispute(uint sellersCut) public atState(State.UnderDispute){\n   require(msg.sender == disputeResolver);\n   buyer.transfer(uint((merchValue + 2*shippingFee)*sellersCut/100));\n   buyer.transfer(uint((merchValue + 2*shippingFee)*(1-sellersCut)/100));\n   selfdestruct(packageManger);\n\n }\n\n function terminateNormal() private atState(State.Shipped){\n   seller.transfer(merchValue+shippingFee);\n   carrier.transfer(merchValue+2*shippingFee);\n   selfdestruct(packageManger);\n }\n function terminateReturned() private atState(State.Returned){\n   carrier.transfer(merchValue+3*shippingFee);\n   selfdestruct(packageManger);\n }\n\n function terminateNotShipped() private atState(State.WaitingForStakesIn){\n   if (ammountCarrier>0)\n   {\n      carrier.transfer(ammountCarrier);\n   }\n   if (ammountBuyer>0)\n   {\n      buyer.transfer(ammountBuyer);\n   }\n   if (ammountSeller>0)\n   {\n      buyer.transfer(ammountSeller);\n   }\n   selfdestruct(packageManger);\n }\n function terminateLost() private atState(State.Shipped){\n   buyer.transfer(ammountBuyer);\n   seller.transfer(ammountCarrier+ammountSeller);\n   selfdestruct(packageManger);\n }\n function terminateOnReturn() private atState(State.Returned){\n   seller.transfer(ammountCarrier+ammountSeller);\n   selfdestruct(packageManger);\n }\n\n\n\n}\n",
  "sourcePath": "/Users/ykurtser/src/Project2SmartContract/truffle/contracts/Package.sol",
  "compiler": {
    "name": "solc",
    "version": "0.4.24+commit.e67f0147.Emscripten.clang"
  },
  "schemaVersion": "2.0.0",
  "updatedAt": "2018-06-11T16:27:52.811Z"
}