{
  "contractName": "PackageManager",
  "abi": [
    {
      "constant": false,
      "inputs": [],
      "name": "renounceOwnership",
      "outputs": [],
      "payable": false,
      "stateMutability": "nonpayable",
      "type": "function"
    },
    {
      "constant": true,
      "inputs": [],
      "name": "owner",
      "outputs": [
        {
          "name": "",
          "type": "address"
        }
      ],
      "payable": false,
      "stateMutability": "view",
      "type": "function"
    },
    {
      "constant": false,
      "inputs": [
        {
          "name": "_newOwner",
          "type": "address"
        }
      ],
      "name": "transferOwnership",
      "outputs": [],
      "payable": false,
      "stateMutability": "nonpayable",
      "type": "function"
    },
    {
      "inputs": [],
      "payable": false,
      "stateMutability": "nonpayable",
      "type": "constructor"
    },
    {
      "anonymous": false,
      "inputs": [
        {
          "indexed": true,
          "name": "previousOwner",
          "type": "address"
        }
      ],
      "name": "OwnershipRenounced",
      "type": "event"
    },
    {
      "anonymous": false,
      "inputs": [
        {
          "indexed": true,
          "name": "previousOwner",
          "type": "address"
        },
        {
          "indexed": true,
          "name": "newOwner",
          "type": "address"
        }
      ],
      "name": "OwnershipTransferred",
      "type": "event"
    },
    {
      "constant": false,
      "inputs": [],
      "name": "createPackage",
      "outputs": [
        {
          "name": "",
          "type": "address"
        }
      ],
      "payable": false,
      "stateMutability": "nonpayable",
      "type": "function"
    },
    {
      "constant": false,
      "inputs": [
        {
          "name": "Seller",
          "type": "address"
        },
        {
          "name": "Carrier",
          "type": "address"
        },
        {
          "name": "Buyer",
          "type": "address"
        },
        {
          "name": "DisputeResolver",
          "type": "address"
        },
        {
          "name": "MerchValue",
          "type": "uint256"
        },
        {
          "name": "ShippingFee",
          "type": "uint256"
        },
        {
          "name": "ArrivalTO",
          "type": "uint256"
        },
        {
          "name": "WaitingForStakesInTO",
          "type": "uint256"
        }
      ],
      "name": "createPackage",
      "outputs": [
        {
          "name": "",
          "type": "address"
        }
      ],
      "payable": false,
      "stateMutability": "nonpayable",
      "type": "function"
    },
    {
      "constant": false,
      "inputs": [],
      "name": "claimExcessEth",
      "outputs": [
        {
          "name": "",
          "type": "address"
        }
      ],
      "payable": false,
      "stateMutability": "nonpayable",
      "type": "function"
    },
    {
      "constant": true,
      "inputs": [],
      "name": "getOwner",
      "outputs": [
        {
          "name": "",
          "type": "address"
        }
      ],
      "payable": false,
      "stateMutability": "view",
      "type": "function"
    }
  ],
  "bytecode": "0x608060405234801561001057600080fd5b5033806000806101000a81548173ffffffffffffffffffffffffffffffffffffffff021916908373ffffffffffffffffffffffffffffffffffffffff16021790555050612e0c806100626000396000f300608060405260043610610083576000357c0100000000000000000000000000000000000000000000000000000000900463ffffffff16806355a7780c1461008857806364b347fa146100df578063715018a6146101ea5780638881816514610201578063893d20e8146102585780638da5cb5b146102af578063f2fde38b14610306575b600080fd5b34801561009457600080fd5b5061009d610349565b604051808273ffffffffffffffffffffffffffffffffffffffff1673ffffffffffffffffffffffffffffffffffffffff16815260200191505060405180910390f35b3480156100eb57600080fd5b506101a8600480360381019080803573ffffffffffffffffffffffffffffffffffffffff169060200190929190803573ffffffffffffffffffffffffffffffffffffffff169060200190929190803573ffffffffffffffffffffffffffffffffffffffff169060200190929190803573ffffffffffffffffffffffffffffffffffffffff169060200190929190803590602001909291908035906020019092919080359060200190929190803590602001909291905050506103ac565b604051808273ffffffffffffffffffffffffffffffffffffffff1673ffffffffffffffffffffffffffffffffffffffff16815260200191505060405180910390f35b3480156101f657600080fd5b506101ff610508565b005b34801561020d57600080fd5b5061021661060a565b604051808273ffffffffffffffffffffffffffffffffffffffff1673ffffffffffffffffffffffffffffffffffffffff16815260200191505060405180910390f35b34801561026457600080fd5b5061026d6106e9565b604051808273ffffffffffffffffffffffffffffffffffffffff1673ffffffffffffffffffffffffffffffffffffffff16815260200191505060405180910390f35b3480156102bb57600080fd5b506102c4610712565b604051808273ffffffffffffffffffffffffffffffffffffffff1673ffffffffffffffffffffffffffffffffffffffff16815260200191505060405180910390f35b34801561031257600080fd5b50610347600480360381019080803573ffffffffffffffffffffffffffffffffffffffff169060200190929190505050610737565b005b600033610354610898565b808273ffffffffffffffffffffffffffffffffffffffff1673ffffffffffffffffffffffffffffffffffffffff168152602001915050604051809103906000f0801580156103a6573d6000803e3d6000fd5b50905090565b60003389898989898989896103bf6108a9565b808a73ffffffffffffffffffffffffffffffffffffffff1673ffffffffffffffffffffffffffffffffffffffff1681526020018973ffffffffffffffffffffffffffffffffffffffff1673ffffffffffffffffffffffffffffffffffffffff1681526020018873ffffffffffffffffffffffffffffffffffffffff1673ffffffffffffffffffffffffffffffffffffffff1681526020018773ffffffffffffffffffffffffffffffffffffffff1673ffffffffffffffffffffffffffffffffffffffff1681526020018673ffffffffffffffffffffffffffffffffffffffff1673ffffffffffffffffffffffffffffffffffffffff1681526020018581526020018481526020018381526020018281526020019950505050505050505050604051809103906000f0801580156104f9573d6000803e3d6000fd5b50905098975050505050505050565b6000809054906101000a900473ffffffffffffffffffffffffffffffffffffffff1673ffffffffffffffffffffffffffffffffffffffff163373ffffffffffffffffffffffffffffffffffffffff1614151561056357600080fd5b6000809054906101000a900473ffffffffffffffffffffffffffffffffffffffff1673ffffffffffffffffffffffffffffffffffffffff167ff8df31144d9c2f0f6b59d69b8b98abd5459d07f2742c4df920b25aae33c6482060405160405180910390a260008060006101000a81548173ffffffffffffffffffffffffffffffffffffffff021916908373ffffffffffffffffffffffffffffffffffffffff160217905550565b60008060009054906101000a900473ffffffffffffffffffffffffffffffffffffffff1673ffffffffffffffffffffffffffffffffffffffff163373ffffffffffffffffffffffffffffffffffffffff1614151561066757600080fd5b6000809054906101000a900473ffffffffffffffffffffffffffffffffffffffff1673ffffffffffffffffffffffffffffffffffffffff166108fc3073ffffffffffffffffffffffffffffffffffffffff16319081150290604051600060405180830381858888f193505050501580156106e5573d6000803e3d6000fd5b5090565b60008060009054906101000a900473ffffffffffffffffffffffffffffffffffffffff16905090565b6000809054906101000a900473ffffffffffffffffffffffffffffffffffffffff1681565b6000809054906101000a900473ffffffffffffffffffffffffffffffffffffffff1673ffffffffffffffffffffffffffffffffffffffff163373ffffffffffffffffffffffffffffffffffffffff1614151561079257600080fd5b61079b8161079e565b50565b600073ffffffffffffffffffffffffffffffffffffffff168173ffffffffffffffffffffffffffffffffffffffff16141515156107da57600080fd5b8073ffffffffffffffffffffffffffffffffffffffff166000809054906101000a900473ffffffffffffffffffffffffffffffffffffffff1673ffffffffffffffffffffffffffffffffffffffff167f8be0079c531659141344cd1fd0a4f28419497f9722a3daafe3b4186f6b6457e060405160405180910390a3806000806101000a81548173ffffffffffffffffffffffffffffffffffffffff021916908373ffffffffffffffffffffffffffffffffffffffff16021790555050565b604051610c2e80620008bb83390190565b6040516118f880620014e9833901905600608060405234801561001057600080fd5b50604051602080610c2e8339810180604052810190808051906020019092919050505080806000806101000a81548173ffffffffffffffffffffffffffffffffffffffff021916908373ffffffffffffffffffffffffffffffffffffffff16021790555050600173__AddressSet____________________________6394771fdb9091836040518363ffffffff167c0100000000000000000000000000000000000000000000000000000000028152600401808381526020018273ffffffffffffffffffffffffffffffffffffffff1673ffffffffffffffffffffffffffffffffffffffff1681526020019250505060206040518083038186803b15801561011757600080fd5b505af415801561012b573d6000803e3d6000fd5b505050506040513d602081101561014157600080fd5b81019080805190602001909291905050505050610acb806101636000396000f300608060405260043610610078576000357c0100000000000000000000000000000000000000000000000000000000900463ffffffff168063707401ee1461007d578063715018a6146101065780637e33ff4b1461011d5780638da5cb5b14610160578063c179d703146101b7578063f2fde38b146101fa575b600080fd5b34801561008957600080fd5b50610104600480360381019080803573ffffffffffffffffffffffffffffffffffffffff169060200190929190803590602001908201803590602001908080601f016020809104026020016040519081016040528093929190818152602001838380828437820191505050505050919291929050505061023d565b005b34801561011257600080fd5b5061011b610519565b005b34801561012957600080fd5b5061015e600480360381019080803573ffffffffffffffffffffffffffffffffffffffff16906020019092919050505061061b565b005b34801561016c57600080fd5b5061017561079a565b604051808273ffffffffffffffffffffffffffffffffffffffff1673ffffffffffffffffffffffffffffffffffffffff16815260200191505060405180910390f35b3480156101c357600080fd5b506101f8600480360381019080803573ffffffffffffffffffffffffffffffffffffffff1690602001909291905050506107bf565b005b34801561020657600080fd5b5061023b600480360381019080803573ffffffffffffffffffffffffffffffffffffffff16906020019092919050505061093e565b005b600173__AddressSet____________________________637ef295c99091336040518363ffffffff167c0100000000000000000000000000000000000000000000000000000000028152600401808381526020018273ffffffffffffffffffffffffffffffffffffffff1673ffffffffffffffffffffffffffffffffffffffff1681526020019250505060206040518083038186803b1580156102df57600080fd5b505af41580156102f3573d6000803e3d6000fd5b505050506040513d602081101561030957600080fd5b8101908080519060200190929190505050151561032557600080fd5b7f5dca52be3de0dd469988fa9678424836d34c38c867f33b8b3634c9b3a4d027d9338383604051808473ffffffffffffffffffffffffffffffffffffffff1673ffffffffffffffffffffffffffffffffffffffff1681526020018373ffffffffffffffffffffffffffffffffffffffff1673ffffffffffffffffffffffffffffffffffffffff16815260200180602001828103825283818151815260200191508051906020019080838360005b838110156103ed5780820151818401526020810190506103d2565b50505050905090810190601f16801561041a5780820380516001836020036101000a031916815260200191505b5094505050505060405180910390a18173ffffffffffffffffffffffffffffffffffffffff1663d0498dd3826040518263ffffffff167c01000000000000000000000000000000000000000000000000000000000281526004018080602001828103825283818151815260200191508051906020019080838360005b838110156104b1578082015181840152602081019050610496565b50505050905090810190601f1680156104de5780820380516001836020036101000a031916815260200191505b5092505050600060405180830381600087803b1580156104fd57600080fd5b505af1158015610511573d6000803e3d6000fd5b505050505050565b6000809054906101000a900473ffffffffffffffffffffffffffffffffffffffff1673ffffffffffffffffffffffffffffffffffffffff163373ffffffffffffffffffffffffffffffffffffffff1614151561057457600080fd5b6000809054906101000a900473ffffffffffffffffffffffffffffffffffffffff1673ffffffffffffffffffffffffffffffffffffffff167ff8df31144d9c2f0f6b59d69b8b98abd5459d07f2742c4df920b25aae33c6482060405160405180910390a260008060006101000a81548173ffffffffffffffffffffffffffffffffffffffff021916908373ffffffffffffffffffffffffffffffffffffffff160217905550565b6000809054906101000a900473ffffffffffffffffffffffffffffffffffffffff1673ffffffffffffffffffffffffffffffffffffffff163373ffffffffffffffffffffffffffffffffffffffff1614151561067657600080fd5b8073ffffffffffffffffffffffffffffffffffffffff167f42c11a7a3ead6edab391799fdcd01828e174df779fab85e9c53bfcb1caa157a860405160405180910390a2600173__AddressSet____________________________63464a41ed9091836040518363ffffffff167c0100000000000000000000000000000000000000000000000000000000028152600401808381526020018273ffffffffffffffffffffffffffffffffffffffff1673ffffffffffffffffffffffffffffffffffffffff1681526020019250505060206040518083038186803b15801561075b57600080fd5b505af415801561076f573d6000803e3d6000fd5b505050506040513d602081101561078557600080fd5b81019080805190602001909291905050505050565b6000809054906101000a900473ffffffffffffffffffffffffffffffffffffffff1681565b6000809054906101000a900473ffffffffffffffffffffffffffffffffffffffff1673ffffffffffffffffffffffffffffffffffffffff163373ffffffffffffffffffffffffffffffffffffffff1614151561081a57600080fd5b8073ffffffffffffffffffffffffffffffffffffffff167f1fcf49580398cec7111d47c06938189c65978f0e0b979f9e66686023e9f01d9d60405160405180910390a2600173__AddressSet____________________________6394771fdb9091836040518363ffffffff167c0100000000000000000000000000000000000000000000000000000000028152600401808381526020018273ffffffffffffffffffffffffffffffffffffffff1673ffffffffffffffffffffffffffffffffffffffff1681526020019250505060206040518083038186803b1580156108ff57600080fd5b505af4158015610913573d6000803e3d6000fd5b505050506040513d602081101561092957600080fd5b81019080805190602001909291905050505050565b6000809054906101000a900473ffffffffffffffffffffffffffffffffffffffff1673ffffffffffffffffffffffffffffffffffffffff163373ffffffffffffffffffffffffffffffffffffffff1614151561099957600080fd5b6109a2816109a5565b50565b600073ffffffffffffffffffffffffffffffffffffffff168173ffffffffffffffffffffffffffffffffffffffff16141515156109e157600080fd5b8073ffffffffffffffffffffffffffffffffffffffff166000809054906101000a900473ffffffffffffffffffffffffffffffffffffffff1673ffffffffffffffffffffffffffffffffffffffff167f8be0079c531659141344cd1fd0a4f28419497f9722a3daafe3b4186f6b6457e060405160405180910390a3806000806101000a81548173ffffffffffffffffffffffffffffffffffffffff021916908373ffffffffffffffffffffffffffffffffffffffff160217905550505600a165627a7a72305820ff6e8332c74ed7a3007d48aa9b7da02c4259fb31b01fa4b6252561d85fcf40780029608060405260405161012080620018f883398101806040528101908080519060200190929190805190602001909291908051906020019092919080519060200190929190805190602001909291908051906020019092919080519060200190929190805190602001909291908051906020019092919050505087600060016101000a81548173ffffffffffffffffffffffffffffffffffffffff021916908373ffffffffffffffffffffffffffffffffffffffff16021790555085600260006101000a81548173ffffffffffffffffffffffffffffffffffffffff021916908373ffffffffffffffffffffffffffffffffffffffff16021790555086600160006101000a81548173ffffffffffffffffffffffffffffffffffffffff021916908373ffffffffffffffffffffffffffffffffffffffff16021790555033600460006101000a81548173ffffffffffffffffffffffffffffffffffffffff021916908373ffffffffffffffffffffffffffffffffffffffff16021790555084600360006101000a81548173ffffffffffffffffffffffffffffffffffffffff021916908373ffffffffffffffffffffffffffffffffffffffff16021790555083600581905550826006819055506000600781905550600060088190555060006009819055506000600e8190555060008060006101000a81548160ff021916908360038111156200020a57fe5b021790555042600a8190555081600b8190555080600c8190555060646040519080825280602002602001820160405280156200025b57816020015b6060815260200190600190039081620002455790505b50600d908051906020019062000273929190620003c9565b506200028e896200029d640100000000026401000000009004565b5050505050505050506200055c565b600260009054906101000a900473ffffffffffffffffffffffffffffffffffffffff1673ffffffffffffffffffffffffffffffffffffffff168173ffffffffffffffffffffffffffffffffffffffff161415620003015734600781905550620003c6565b600060019054906101000a900473ffffffffffffffffffffffffffffffffffffffff1673ffffffffffffffffffffffffffffffffffffffff168173ffffffffffffffffffffffffffffffffffffffff161415620003655734600981905550620003c5565b600160009054906101000a900473ffffffffffffffffffffffffffffffffffffffff1673ffffffffffffffffffffffffffffffffffffffff168173ffffffffffffffffffffffffffffffffffffffff161415620003c457346008819055505b5b5b50565b8280548282559060005260206000209081019282156200041d579160200282015b828111156200041c5782518290805190602001906200040b92919062000430565b5091602001919060010190620003ea565b5b5090506200042c9190620004b7565b5090565b828054600181600116156101000203166002900490600052602060002090601f016020900481019282601f106200047357805160ff1916838001178555620004a4565b82800160010185558215620004a4579182015b82811115620004a357825182559160200191906001019062000486565b5b509050620004b39190620004e8565b5090565b620004e591905b80821115620004e15760008181620004d7919062000510565b50600101620004be565b5090565b90565b6200050d91905b8082111562000509576000816000905550600101620004ef565b5090565b90565b50805460018160011615610100020316600290046000825580601f1062000538575062000559565b601f016020900490600052602060002090810190620005589190620004e8565b5b50565b61138c806200056c6000396000f30060806040526004361061006d576000357c0100000000000000000000000000000000000000000000000000000000900463ffffffff1680631865c57d146101ce578063260519b9146101f95780634fd6137c14610262578063c2b7b86814610279578063d0498dd3146102a6575b6000600381111561007a57fe5b6000809054906101000a900460ff16600381111561009457fe5b1480156100a75750600c54600a54014210155b156100b9576100b461030f565b610152565b600160038111156100c657fe5b6000809054906101000a900460ff1660038111156100e057fe5b1480156100f35750600b54600a54014210155b15610105576101006104e3565b610151565b6002600381111561011257fe5b6000809054906101000a900460ff16600381111561012c57fe5b1480156101425750600b54600202600a54014210155b156101505761014f61062c565b5b5b5b61015b3361070a565b600654600554016007541015801561017a575060065460020260095410155b801561018e57506006546005540160085410155b80156101be5750600060038111156101a257fe5b6000809054906101000a900460ff1660038111156101bc57fe5b145b156101cc576101cb610831565b5b005b3480156101da57600080fd5b506101e361087c565b6040518082815260200191505060405180910390f35b34801561020557600080fd5b50610260600480360381019080803590602001908201803590602001908080601f016020809104026020016040519081016040528093929190818152602001838380828437820191505050505050919291929050505061089d565b005b34801561026e57600080fd5b50610277610a75565b005b34801561028557600080fd5b506102a460048036038101908080359060200190929190505050610b10565b005b3480156102b257600080fd5b5061030d600480360381019080803590602001908201803590602001908080601f0160208091040260200160405190810160405280939291908181526020018383808284378201915050505050509192919290505050610cde565b005b600080600381111561031d57fe5b6000809054906101000a900460ff16600381111561033757fe5b14151561034357600080fd5b600060085411156103ba57600160009054906101000a900473ffffffffffffffffffffffffffffffffffffffff1673ffffffffffffffffffffffffffffffffffffffff166108fc6008549081150290604051600060405180830381858888f193505050501580156103b8573d6000803e3d6000fd5b505b6000600754111561043157600260009054906101000a900473ffffffffffffffffffffffffffffffffffffffff1673ffffffffffffffffffffffffffffffffffffffff166108fc6007549081150290604051600060405180830381858888f1935050505015801561042f573d6000803e3d6000fd5b505b600060095411156104a857600260009054906101000a900473ffffffffffffffffffffffffffffffffffffffff1673ffffffffffffffffffffffffffffffffffffffff166108fc6009549081150290604051600060405180830381858888f193505050501580156104a6573d6000803e3d6000fd5b505b600460009054906101000a900473ffffffffffffffffffffffffffffffffffffffff1673ffffffffffffffffffffffffffffffffffffffff16ff5b60018060038111156104f157fe5b6000809054906101000a900460ff16600381111561050b57fe5b14151561051757600080fd5b600260009054906101000a900473ffffffffffffffffffffffffffffffffffffffff1673ffffffffffffffffffffffffffffffffffffffff166108fc6007549081150290604051600060405180830381858888f19350505050158015610581573d6000803e3d6000fd5b50600060019054906101000a900473ffffffffffffffffffffffffffffffffffffffff1673ffffffffffffffffffffffffffffffffffffffff166108fc600954600854019081150290604051600060405180830381858888f193505050501580156105f0573d6000803e3d6000fd5b50600460009054906101000a900473ffffffffffffffffffffffffffffffffffffffff1673ffffffffffffffffffffffffffffffffffffffff16ff5b600280600381111561063a57fe5b6000809054906101000a900460ff16600381111561065457fe5b14151561066057600080fd5b600060019054906101000a900473ffffffffffffffffffffffffffffffffffffffff1673ffffffffffffffffffffffffffffffffffffffff166108fc600954600854019081150290604051600060405180830381858888f193505050501580156106ce573d6000803e3d6000fd5b50600460009054906101000a900473ffffffffffffffffffffffffffffffffffffffff1673ffffffffffffffffffffffffffffffffffffffff16ff5b600260009054906101000a900473ffffffffffffffffffffffffffffffffffffffff1673ffffffffffffffffffffffffffffffffffffffff168173ffffffffffffffffffffffffffffffffffffffff16141561076c573460078190555061082e565b600060019054906101000a900473ffffffffffffffffffffffffffffffffffffffff1673ffffffffffffffffffffffffffffffffffffffff168173ffffffffffffffffffffffffffffffffffffffff1614156107ce573460098190555061082d565b600160009054906101000a900473ffffffffffffffffffffffffffffffffffffffff1673ffffffffffffffffffffffffffffffffffffffff168173ffffffffffffffffffffffffffffffffffffffff16141561082c57346008819055505b5b5b50565b60016000809054906101000a900460ff16600381111561084d57fe5b01600381111561085957fe5b6000806101000a81548160ff0219169083600381111561087557fe5b0217905550565b60008060009054906101000a900460ff16600381111561089857fe5b905090565b60018060038111156108ab57fe5b6000809054906101000a900460ff1660038111156108c557fe5b1415156108d157600080fd5b600260009054906101000a900473ffffffffffffffffffffffffffffffffffffffff1673ffffffffffffffffffffffffffffffffffffffff163373ffffffffffffffffffffffffffffffffffffffff1614151561092d57600080fd5b81600d600e5481548110151561093f57fe5b90600052602060002001908051906020019061095c9291906112bb565b50600e60008154809291906001019190505550610977610831565b600260009054906101000a900473ffffffffffffffffffffffffffffffffffffffff1673ffffffffffffffffffffffffffffffffffffffff166108fc6005549081150290604051600060405180830381858888f193505050501580156109e1573d6000803e3d6000fd5b50600554600760008282540392505081905550600160009054906101000a900473ffffffffffffffffffffffffffffffffffffffff1673ffffffffffffffffffffffffffffffffffffffff166108fc6006549081150290604051600060405180830381858888f19350505050158015610a5e573d6000803e3d6000fd5b506006546008600082825403925050819055505050565b6002806003811115610a8357fe5b6000809054906101000a900460ff166003811115610a9d57fe5b141515610aa957600080fd5b600160009054906101000a900473ffffffffffffffffffffffffffffffffffffffff1673ffffffffffffffffffffffffffffffffffffffff163373ffffffffffffffffffffffffffffffffffffffff16141515610b0557600080fd5b610b0d610831565b50565b6003806003811115610b1e57fe5b6000809054906101000a900460ff166003811115610b3857fe5b141515610b4457600080fd5b600360009054906101000a900473ffffffffffffffffffffffffffffffffffffffff1673ffffffffffffffffffffffffffffffffffffffff163373ffffffffffffffffffffffffffffffffffffffff16141515610ba057600080fd5b600260009054906101000a900473ffffffffffffffffffffffffffffffffffffffff1673ffffffffffffffffffffffffffffffffffffffff166108fc6064846006546002026005540102811515610bf357fe5b049081150290604051600060405180830381858888f19350505050158015610c1f573d6000803e3d6000fd5b50600260009054906101000a900473ffffffffffffffffffffffffffffffffffffffff1673ffffffffffffffffffffffffffffffffffffffff166108fc6064846001036006546002026005540102811515610c7657fe5b049081150290604051600060405180830381858888f19350505050158015610ca2573d6000803e3d6000fd5b50600460009054906101000a900473ffffffffffffffffffffffffffffffffffffffff1673ffffffffffffffffffffffffffffffffffffffff16ff5b60006003811115610ceb57fe5b6000809054906101000a900460ff166003811115610d0557fe5b148015610d185750600c54600a54014210155b15610d2a57610d2561030f565b610dc3565b60016003811115610d3757fe5b6000809054906101000a900460ff166003811115610d5157fe5b148015610d645750600b54600a54014210155b15610d7657610d716104e3565b610dc2565b60026003811115610d8357fe5b6000809054906101000a900460ff166003811115610d9d57fe5b148015610db35750600b54600202600a54014210155b15610dc157610dc061062c565b5b5b5b60016003811115610dd057fe5b6000809054906101000a900460ff166003811115610dea57fe5b148015610e9c5750600160009054906101000a900473ffffffffffffffffffffffffffffffffffffffff1673ffffffffffffffffffffffffffffffffffffffff163373ffffffffffffffffffffffffffffffffffffffff161480610e9b5750600260009054906101000a900473ffffffffffffffffffffffffffffffffffffffff1673ffffffffffffffffffffffffffffffffffffffff163373ffffffffffffffffffffffffffffffffffffffff16145b5b80610f7c575060026003811115610eaf57fe5b6000809054906101000a900460ff166003811115610ec957fe5b148015610f7b5750600160009054906101000a900473ffffffffffffffffffffffffffffffffffffffff1673ffffffffffffffffffffffffffffffffffffffff163373ffffffffffffffffffffffffffffffffffffffff161480610f7a5750600060019054906101000a900473ffffffffffffffffffffffffffffffffffffffff1673ffffffffffffffffffffffffffffffffffffffff163373ffffffffffffffffffffffffffffffffffffffff16145b5b5b1515610f8757600080fd5b600260009054906101000a900473ffffffffffffffffffffffffffffffffffffffff1673ffffffffffffffffffffffffffffffffffffffff163373ffffffffffffffffffffffffffffffffffffffff161415610fe657610fe561108a565b5b600060019054906101000a900473ffffffffffffffffffffffffffffffffffffffff1673ffffffffffffffffffffffffffffffffffffffff163373ffffffffffffffffffffffffffffffffffffffff161415611045576110446111da565b5b80600d600e5481548110151561105757fe5b9060005260206000200190805190602001906110749291906112bb565b50600e6000815480929190600101919050555050565b600180600381111561109857fe5b6000809054906101000a900460ff1660038111156110b257fe5b1415156110be57600080fd5b600060019054906101000a900473ffffffffffffffffffffffffffffffffffffffff1673ffffffffffffffffffffffffffffffffffffffff166108fc600654600554019081150290604051600060405180830381858888f1935050505015801561112c573d6000803e3d6000fd5b50600160009054906101000a900473ffffffffffffffffffffffffffffffffffffffff1673ffffffffffffffffffffffffffffffffffffffff166108fc600654600202600554019081150290604051600060405180830381858888f1935050505015801561119e573d6000803e3d6000fd5b50600460009054906101000a900473ffffffffffffffffffffffffffffffffffffffff1673ffffffffffffffffffffffffffffffffffffffff16ff5b60028060038111156111e857fe5b6000809054906101000a900460ff16600381111561120257fe5b14151561120e57600080fd5b600160009054906101000a900473ffffffffffffffffffffffffffffffffffffffff1673ffffffffffffffffffffffffffffffffffffffff166108fc600654600302600554019081150290604051600060405180830381858888f1935050505015801561127f573d6000803e3d6000fd5b50600460009054906101000a900473ffffffffffffffffffffffffffffffffffffffff1673ffffffffffffffffffffffffffffffffffffffff16ff5b828054600181600116156101000203166002900490600052602060002090601f016020900481019282601f106112fc57805160ff191683800117855561132a565b8280016001018555821561132a579182015b8281111561132957825182559160200191906001019061130e565b5b509050611337919061133b565b5090565b61135d91905b80821115611359576000816000905550600101611341565b5090565b905600a165627a7a72305820459dc5d17d842d72107d0e3afd16e5efefc88d8fd40494a233399fe416c6cf100029a165627a7a723058205ae6c6842794ab1866fc185e74150e1d4030f3f83f4636d902c78d24df52766a0029",
  "source": "// Version of Solidity compiler this program was written for\r\npragma solidity ^0.4.21;\r\nimport \"./Carrier.sol\";\r\n\r\n\r\ncontract PackageManager is Ownable{\r\n\r\n    constructor()\r\n    Ownable(msg.sender)\r\n    public {}\r\n\r\n    function createPackage(address Seller,address Carrier,address Buyer,address DisputeResolver,uint MerchValue,uint ShippingFee, uint ArrivalTO, uint WaitingForStakesInTO)\r\n    public\r\n    returns (address)\r\n    {\r\n        return new Package(msg.sender,Seller,Carrier,Buyer,DisputeResolver,MerchValue,ShippingFee,ArrivalTO, WaitingForStakesInTO);\r\n    }\r\n\r\n    function createPackage()\r\n    public\r\n    returns (address)\r\n    {\r\n        return new Carrier(msg.sender);\r\n    }\r\n\r\n    function claimExcessEth()\r\n    onlyOwner()\r\n    public\r\n    returns (address)\r\n    {\r\n        owner.transfer(address(this).balance);\r\n    }\r\n\r\n\r\n    function getOwner()\r\n    public\r\n    view\r\n    returns (address)\r\n    {\r\n        return (owner);\r\n    }\r\n\r\n}\r\n",
  "sourcePath": "C:\\Users\\chaimovy\\Desktop\\Project2SmartContract\\truffle\\contracts\\PackageManager.sol",
  "compiler": {
    "name": "solc",
    "version": "0.4.23+commit.124ca40d.Emscripten.clang"
  },
  "schemaVersion": "2.0.0",
  "updatedAt": "2018-06-13T12:54:19.884Z"
}